:100000000C9463040C948B040C948B040C948B045C
:100010000C948B040C948B040C948B040C948B0424
:100020000C948B040C948B040C948B040C948B0414
:100030000C948B040C948B040C948B040C948B0404
:100040000C94C20F0C948B040C94E9100C948B0448
:100050000C948B040C948B040C948B040C948B04E4
:100060000C9486090C948B04000000000000000032
:100070000000000000000000000000000000000080
:100080000000000000000000000000000000000070
:100090000000000000000000000000000000000060
:1000A0000000000000000000000000000000000050
:1000B0000000000000000000000000000000000040
:1000C0000000000000000000000000000000000030
:1000D0000000000000000000000000000000000020
:1000E0000000000000000000000000000000000010
:1000F0000000000000000000000000000000000000
:1001000000000000000000000000000000000000EF
:1001100000000000000000000000000000000000DF
:1001200000000000000000000000000000000000CF
:1001300000000000000000000000000000000000BF
:1001400000000000000000000000000000000000AF
:10015000000000000000000000000000000000009F
:10016000000000000000000000000000000000008F
:100170000000005F5F0000000007070000070700A5
:10018000247E7E247E7E240000242E6B6B3A120097
:10019000006636180C666200307A4F5D3772500088
:1001A00000000007070000000000003E7F634100E0
:1001B0000041637F3E000000082A3E1C1C3E2A08C6
:1001C0000008083E3E0808000080E06000000000D3
:1001D000000808080808080000000060600000002F
:1001E000006030180C060300003E7F49457F3E004A
:1001F0000040427F7F40400000426371594F4600FB
:10020000002161454F7B310000181C167F7F1000D4
:1002100000276745457D3900003E7F494979300018
:10022000000171790D07030000367F49497F3600D0
:1002300000064F49693F1E000000003636000000EE
:1002400000004076360000000000081C36634100C4
:100250000024242424242400004163361C080000C8
:1002600000020351590F0600003E7F415D575E00BA
:10027000007C7E13137E7C00007F7F49497F36001F
:10028000003E7F4141632200007F7F41633E1C00AE
:10029000007F7F4949494100007F7F09090901002A
:1002A000003E7F4149797900007F7F08087F7F0009
:1002B0000000417F7F41000000206040407F3F0000
:1002C000007F7F1C36634100007F7F40404040003C
:1002D0007F7F060C067F7F00007F7F0E1C7F7F00E4
:1002E000003E7F41417F3E00007F7F09090F0600ED
:1002F000003E7F51217F5E00007F7F09197F6600ED
:1003000000266F49497B32000001017F7F01010017
:10031000003F7F40407F7F00001F3F60603F1F0025
:100320007F7F3018307F7F000063771C1C7763006D
:1003300000070F78780F0700006171594D4743009F
:100340000000007F7F4141000003060C1830600070
:100350000041417F7F000000080C0603060C0800E6
:10036000404040404040400002060C0800000000B1
:1003700000207454547C7800007F7F44447C380013
:1003800000387C444444000000387C44447F7F00B3
:1003900000387C54545C180000047E7F0505000082
:1003A0000098BCA4A4FC7C00007F7F04047C78003F
:1003B0000000447D7D400000008080FD7D00000045
:1003C000007F7F10386C44000000417F7F400000B8
:1003D0007C7C0C180C7C7800007C7C04047C78000D
:1003E00000387C44447C380000FCFC44447C3800E9
:1003F00000387C4444FCFC00007C7C04040C0800B5
:1004000000485C54547424000004043E7E444400BC
:10041000003C7C40407C7C00001C3C60603C1C003C
:100420001C7C6030607C1C0000446C38386C4400DC
:10043000009CBCA0A0FC7C00004464745C4C4400A4
:100440000000083E77414100000000FFFF0000006F
:10045000004141773E0800000C06060C18180C00FD
:100460000060785E46586000001CBEA2E2361400B0
:1004700000397940407979000030785A5B59100092
:1004800000226A69697A720000217554547D7900EE
:100490000020696B6A7870000020686B6B787000D0
:1004A00000183CA4E424000000327A59595A120082
:1004B00000397D54545D19000030795B5A581000A2
:1004C000000149787841010000024A79794202002E
:1004D00000014B7A784000000071792C2C79710072
:1004E0000070782D2D787000007C7C5657554400A4
:1004F0002074547C7C545C187C7E137F7F49494176
:1005000000327A49497A320000317948487931001D
:100510000030794B4A783000003A7A41417A7A00CB
:100520000038794342787800009DBDA0A0FD7D0091
:1005300000397D44447D3900003D7D40407D7D0093
:1005400000183CE7E724000000487E7F4B4942004A
:100550000003177C7C17030000FCFE4B497F36002C
:1005600000447E3F050501000020686A6B79700039
:100570000000487A7B4100000030784A4B79300017
:100580000038784243797800007A790B0A79700054
:10059000007A7913227978000010BAAAAABE3C002A
:1005A000001CBEA2A2BE1C000060F09A8AC04000DF
:1005B000000078780808080000080808787800002B
:1005C0006737180C96CBF9B06737186C56FBF940B3
:1005D000000000FAFA000000081C366B5D3663412B
:1005E0004163365D6B361C080022000000220000CB
:1005F0000022008800220088AA55AA55AA55AA55AB
:10060000000000FFFF000000181818FFFF000000A6
:10061000363636FFFF0000001818FFFF00FFFF000E
:100620001818F8F818F8F800363636FEFE00000004
:100630003636F7F700FFFF000000FFFF00FFFF0066
:100640003636F6F606FEFE0036363737303F3F00C8
:1006500018181F1F181F1F003636363F3F000000B6
:10066000181818F8F80000000000001F1F181818CC
:100670001818181F1F181818181818F8F81818182C
:10068000000000FFFF181818181818181818181864
:10069000181818FFFF181818000000FFFF3636362C
:1006A0000000FFFF00FFFF1800003F3F30373736E4
:1006B0000000FEFE06F6F636363637373037373668
:1006C0003636F6F606F6F6360000FFFF00F7F73688
:1006D00036363636363636363636F7F700F7F736EC
:1006E000363636373736363618181F1F181F1F187C
:1006F000363636F6F63636361818F8F818F8F8188A
:1007000000001F1F181F1F180000003F3F3636361D
:10071000000000FEFE3636360000F8F818F8F8182B
:100720001818FFFF18FFFF18363636FFFF3636362B
:100730001818181F1F000000000000F8F8181818FB
:10074000FFFFFFFFFFFFFFFFF0F0F0F0F0F0F0F031
:10075000FFFFFFFF0000000000000000FFFFFFFFA1
:100760000F0F0F0F0F0F0F0F387C446C386C4400C5
:1007700000FCFE4B497F360082FEFE8282060E00A0
:1007800004FC7C04FC7C04004163775D49636300E6
:1007900000387C467E3A020080FC7C407C7C4040F5
:1007A000000404FC7C0404000018BDE7E7BD180049
:1007B000003C7E4A4A7E3C00005C7E02027E5C0079
:1007C000387C664F7D3B02000098E47E27190000CC
:1007D000387C44FE447C3800003E7F6B4949490028
:1007E000007E7F01017F7E00002A2A2A2A2A2A0011
:1007F0000044445F5F4444000040515B4E4440006D
:100800000040444E5B514000000000FCFE020E0C14
:100810003070407F3F0000000008086B6B08080044
:10082000002412122424120000020705070200000F
:10083000000207070702000000000030300000003F
:10084000103060781C040404001E1F011F1E0000ED
:1008500000121B1D17120000001115151F0A0000C1
:10086000020202020202020000000000240027002F
:100870002A0000000000250028002B0000000000D6
:1008800023002600290004040404040404040202D2
:1008900002020202030303030303010204081020FF
:1008A000408001020408102001020408102000000A
:1008B0000007000201000003040600000000000021
:1008C00000007D086E1211241FBECFEFD8E0DEBFFE
:1008D000CDBF11E0A0E0B1E0E0EEF8E202C005908B
:1008E0000D92A039B107D9F713E0A0E9B1E001C03A
:1008F0001D92AF3DB107E1F718E0C6ECD8E004C0A7
:100900002297FE010E943314C23CD107C9F70E940E
:10091000BB0F0C946E140C9400000F931F93CF9395
:10092000DF93689F8001699F100D789F100D11243F
:10093000C8010E94A904EC01009729F060E070E072
:10094000A8010E94AB05CE01DF91CF911F910F91BD
:100950000895CF93DF93BC018230910510F462E0DB
:1009600070E0A091DD03B091DE03ED01E0E0F0E086
:1009700040E050E021C0888199818617970769F48B
:100980008A819B81309719F09383828304C090936E
:10099000DE038093DD03FE0134C06817790738F465
:1009A0004115510519F08417950708F4AC01FE01B3
:1009B0008A819B819C01E9012097E9F64115510547
:1009C000A9F1CA01861B970B049708F4BA01E0E06D
:1009D000F0E02AC08D919C91119784179507F9F446
:1009E0006417750781F412968D919C911397309737
:1009F00019F09383828304C09093DE038093DD0318
:100A0000FD0132964CC0CA01861B970BFD01E80F11
:100A1000F91F6193719302978D939C9340C0FD01E0
:100A2000828193819C01D9011097A1F68091DB030B
:100A30009091DC03892B41F480917E0190917F019C
:100A40009093DC038093DB034091800150918101FE
:100A50004115510541F44DB75EB780917C019091ED
:100A60007D01481B590B2091DB033091DC03CA0147
:100A7000821B930B8617970780F0AB014E5F5F4F89
:100A80008417950750F0420F531F5093DC03409397
:100A9000DB03F9016193719302C0E0E0F0E0CF0164
:100AA000DF91CF910895CF93DF93009709F450C061
:100AB000EC0122971B821A82A091DD03B091DE0324
:100AC000109709F140E050E0AC17BD0708F1BB8377
:100AD000AA83FE0121913191E20FF31FAE17BF07E8
:100AE00079F48D919C911197280F391F2E5F3F4FFC
:100AF0003983288312968D919C9113979B838A83C7
:100B00004115510571F4D093DE03C093DD0320C07D
:100B100012968D919C911397AD01009711F0DC0115
:100B2000D3CFFA01D383C28321913191E20FF31F16
:100B3000CE17DF0769F488819981280F391F2E5F4E
:100B40003F4FFA01318320838A819B819383828383
:100B5000DF91CF910895DC0101C06D934150504069
:100B6000E0F70895FB01DC0101900D920020E1F710
:100B70000895AEE0B0E0EFEBF5E00C9445140D897C
:100B80001E8986E08C831A8309838FEF9FE79E83FB
:100B90008D839E01275E3F4FCE0101966F89788D30
:100BA000A9010E94DD052F813885020F131FF8016E
:100BB00010822E96E4E00C946114ABE0B0E0E3EE1A
:100BC000F5E00C9437143C012B015A01FC0117820B
:100BD0001682838181FD03C06FEF7FEFC6C19AE06B
:100BE000892E1E010894211C311CF3012381F2017E
:100BF00023FD859123FF81912F01882309F4B2C140
:100C0000853239F423FD859123FF81912F018532AF
:100C100029F490E0B3010E94D007E7CF982FFF247A
:100C2000EE249924FFE1FF15D0F09B3269F09C324D
:100C300028F4903259F0933291F40EC09D3249F06D
:100C4000903369F441E024C052E0F52A84E0F82AA8
:100C500028C098E0F92A25C0E0E1FE2A22C0F7FC6E
:100C600029C0892F80538A3070F4F6FE05C0989C05
:100C7000902C1124980E15C0E89CE02C1124E80E4D
:100C8000F0E2FF2A0EC09E3229F4F6FC6BC140E46C
:100C9000F42A07C09C3619F450E8F52A02C09836A9
:100CA00049F4F20123FD959123FF91912F0199239E
:100CB00009F0B8CF892F8554833018F080528330E3
:100CC00038F444E050E0A40EB51E5FE359830FC032
:100CD000933631F0933779F0933509F056C020C040
:100CE000F5018081898342E050E0A40EB51E6101C8
:100CF00001E010E012C0F501C080D180F6FC03C015
:100D00006FEF7FEF02C0692D70E042E050E0A40E6B
:100D1000B51EC6010E94C5078C015FE7F52214C00D
:100D2000F501C080D180F6FC03C06FEF7FEF02C0F9
:100D3000692D70E042E050E0A40EB51EC6010E948D
:100D4000BA078C0150E8F52AF3FE07C01AC080E20A
:100D500090E0B3010E94D007EA948E2D90E008172E
:100D60001907A8F30EC0F601F7FC8591F7FE8191F3
:100D70006F0190E0B3010E94D007E110EA940150A6
:100D800010400115110579F7EAC0943611F0993633
:100D900069F5F7FE08C0F501208131814281538158
:100DA00084E090E00AC0F501808191819C01442794
:100DB00037FD4095542F82E090E0A80EB91E9FE6C3
:100DC000F92257FF09C050954095309521953F4F26
:100DD0004F4F5F4FE0E8FE2ACA01B901A1012AE0A6
:100DE00030E00E94FC07D82ED21840C0953729F475
:100DF0001F2D1F7E2AE030E01DC01F2D197F9F365A
:100E000061F0903720F4983509F0ACC00FC09037EE
:100E100039F0983709F0A6C004C028E030E00AC0D5
:100E2000106114FD146020E130E004C014FD166070
:100E300020E132E017FF08C0F501608171818281F5
:100E4000938144E050E008C0F50180819181BC01AC
:100E500080E090E042E050E0A40EB51EA1010E94A7
:100E6000FC07D82ED2188FE7F82EF122F6FE0BC021
:100E70005EEFF522D91438F4F4FE07C0F2FC05C089
:100E80008FEEF82202C01D2D01C0192DF4FE0DC0F9
:100E9000FE01ED0DF11D8081803319F499EEF922E8
:100EA00008C01F5FF2FE05C003C08F2D867809F0D1
:100EB0001F5F0F2DF3FC14C0F0FE0FC01E1510F0C5
:100EC0009D2C0BC09D2C9E0C911A1E2D06C080E2FD
:100ED00090E0B3010E94D0071F5F1E15C0F304C04D
:100EE0001E1510F4E11A01C0EE2404FF0FC080E3C8
:100EF00090E0B3010E94D00702FF1DC001FD03C0B6
:100F000088E790E00EC088E590E00BC0802F8678DF
:100F100091F001FF02C08BE201C080E2F7FC8DE29C
:100F200090E0B3010E94D00706C080E390E0B301D7
:100F30000E94D0079A94D914C0F3DA94F101ED0D10
:100F4000F11D808190E0B3010E94D007DD20A9F758
:100F500006C080E290E0B3010E94D007EA94EE2040
:100F6000C1F743CEF30166817781CB012B96E2E195
:100F70000C945314FC010590615070400110D8F797
:100F8000809590958E0F9F1F0895FC0161507040D1
:100F900001900110D8F7809590958E0F9F1F0895AE
:100FA0000F931F93CF93DF938C01EB018B8181FF14
:100FB0001BC082FF0DC02E813F818C819D8128172F
:100FC000390764F4E881F9810193F983E88306C065
:100FD000E885F985802F0995892B31F48E819F81D1
:100FE00001969F838E8302C00FEF1FEFC801DF9130
:100FF000CF911F910F910895FA01AA27283051F13E
:10100000203181F1E8946F936E7F6E5F7F4F8F4F39
:101010009F4FAF4FB1E03ED0B4E03CD0670F781F98
:10102000891F9A1FA11D680F791F8A1F911DA11D7D
:101030006A0F711D811D911DA11D20D009F46894B6
:101040003F912AE0269F11243019305D3193DEF65E
:10105000CF010895462F4770405D4193B3E00FD014
:10106000C9F7F6CF462F4F70405D4A3318F0495DFF
:1010700031FD4052419302D0A9F7EACFB4E0A695E2
:101080009795879577956795BA95C9F70097610504
:10109000710508959B01AC010A2E0694579547955A
:1010A00037952795BA95C9F7620F731F841F951F4F
:1010B000A01D089581E0809399016093940110929E
:1010C0009701109298010895809193019091920157
:1010D000891B08959091920180919301981710F0C7
:1010E00080E00895E0919001F0919101E90FF11DE8
:1010F00080819F5F9093920108950895DF93CF932D
:101100000F92CDB7DEB76983809199018823A9F04A
:10111000809198018032B0F480919701E09195011F
:10112000F0919601E80FF11D6083809197018F5F28
:10113000809397018093980105C0CE01019661E0EC
:101140000E9469090F90CF91DF9108950E947E0857
:10115000089560919501709196018091940140915C
:10116000980121E00E9424091092970110929801A1
:10117000109299010895862F6091900170919101CC
:10118000413208F040E20E94EC08109292018093F4
:10119000930108950E94BB08089580E290E061E009
:1011A00070E00E948D0480939001909391011092C1
:1011B00092011092930180E290E061E070E00E9461
:1011C0008D0480939501909396011092970110924F
:1011D00098010E94080B0895982F413210F040E0CA
:1011E00031C080919B018823E1F781E080939B01CE
:1011F0008FEF8093AC011092A30141504093A40162
:101200004F5F990F916090939C0185EE8093BC0095
:1012100080919B018130E1F38091A301841710F448
:101220004091A301A091A101B091A20120E030E082
:1012300007C0FB01E20FF31F8D9180832F5F3F4FAB
:101240002417B8F3842F08951F93582F122F41327B
:1012500010F081E03CC080919B018823E1F782E09F
:1012600080939B018FEF8093AC011092A301409378
:10127000A401A091A101B091A201FB0102C0819142
:101280008D938E2F861B8417D0F3852F90E0880FC7
:10129000991F80939C0185EE8093BC00112321F05F
:1012A00080919B018230E1F38091AC018F3F11F47A
:1012B00080E00DC08091AC01803211F482E007C063
:1012C0008091AC01803311F084E001C083E01F9174
:1012D0000895482F613210F081E0089580919B01BC
:1012E000843011F082E008956093A801A091A501D7
:1012F000B091A601842F9C01F90102C081918D93C8
:101300008E2F841B8617D0F380E008951F920F92D2
:101310000FB60F9211242F933F934F935F936F93C8
:101320007F938F939F93AF93BF93EF93FF9380919E
:10133000B90090E0887F90708036910509F4E2C092
:1013400081369105CCF58832910509F47BC089324C
:101350009105B4F48031910509F46FC08131910594
:101360003CF4009709F438C1089709F040C165C002
:101370008831910509F466C0809709F038C17FC0B3
:101380008034910509F4A3C08134910544F480337D
:10139000910509F47FC0C89709F029C186C080353E
:1013A000910509F486C08835910509F495C0883403
:1013B000910509F01CC19EC08839910509F404C14A
:1013C00089399105ECF48837910509F49BC0893778
:1013D00091054CF48836910509F494C08037910545
:1013E00009F005C18FC08838910509F4EDC0803936
:1013F000910509F48DC08038910509F0F8C088C0C6
:10140000803B910509F4B2C0813B91054CF4803AD0
:10141000910509F491C0883A910509F0E8C0A6C089
:10142000803C910509F4D4C0883C910509F4D0C0F2
:10143000883B910509F0DBC0B1C080919C0180938D
:10144000BB00C0C09091A3018091A401981778F4CB
:101450009091A301E091A101F091A201E90FF11D8A
:1014600080818093BB009F5F9093A301ABC085ED0B
:101470008093BC008091BC0084FDFCCFB6C080E2AC
:101480008093AC0185ED8093BC008091BC0084FD0D
:10149000FCCFABC080E38093AC0185ED8093BC00B2
:1014A0008091BC0084FDFCCFA0C088E38093AC0198
:1014B0008FC08091A3019091BB00E091A101F091B8
:1014C000A201E80FF11D90838F5F8093A30190919B
:1014D000A3018091A40174C08091A3019091BB00ED
:1014E000E091A101F091A201E80FF11D90838F5FBF
:1014F0008093A30185ED8093BC008091BC0084FDA6
:10150000FCCF73C083E080939B011092AB015AC063
:101510008091AB01803208F057C08091AB0190916F
:10152000BB00E091A901F091AA01E80FF11D9083A1
:101530008F5F8093AB0146C08091AB01803248F44D
:101540008091AB01E091A901F091AA01E80FF11D92
:1015500010826091AB01E0919F01F091A001809118
:10156000A9019091AA0170E0099532C084E08093AE
:101570009B011092A7011092A801E0919D01F091AA
:101580009E0109958091A801882341F481E0809310
:10159000A801E091A501F091A60110829091A70108
:1015A000E091A501F091A601E90FF11D80818093E2
:1015B000BB009F5F9093A7019091A7018091A80124
:1015C000981710F485EC01C085E88093BC000FC02B
:1015D00085EC8093BC0009C01092AC0185ED80932E
:1015E000BC008091BC0084FDFCCF10929B01FF9158
:1015F000EF91BF91AF919F918F917F916F915F918B
:101600004F913F912F910F900FBE0F901F90189503
:1016100010929B01449A459AE9EBF0E080818E7F1D
:10162000808380818D7F808388E48093B80085E407
:101630008093BC0080E290E061E070E00E948D0445
:101640008093A1019093A20180E290E061E070E0BC
:101650000E948D048093A5019093A60180E290E002
:1016600061E070E00E948D048093A9019093AA012B
:101670000895282F982F80E020FD80E891FD806458
:1016800092FD806293FD806194FD886095FD846089
:1016900096FD826027FD816008950F931F93DF936D
:1016A000CF93CDB7DEB760970FB6F894DEBF0FBE0D
:1016B000CDBF682F8E010F5F1F4F80E1F80111929F
:1016C0008A95E9F788EC93E00E94DF1268EE73E0F8
:1016D00080E090E00E94181017C088EC93E00E9410
:1016E00033128A3071F404C088EC93E00E94331204
:1016F00088EC93E00E941F128823B1F7CE01019677
:1017000009C0F80181938F0188EC93E00E941F12B9
:10171000882319F760960FB6F894DEBF0FBECDBFD1
:10172000CF91DF911F910F91089561E00E949C106D
:1017300008951F93CF93DF93162FC82FD0E016C0C4
:1017400089E060E00E949C10812F90E08C239D2313
:10175000892B19F088E061E002C088E060E00E9417
:101760009C1089E061E00E949C101695112341F7BE
:10177000DF91CF911F91089560E00E949C10089521
:101780000F931F93162FE2E8F1E0E80FF11D00819F
:10179000802F0E94BC0B84E064E00E94990B812F93
:1017A00060E80E94990B80E061E00E94990B802F15
:1017B0000E94950B1F910F910895FF920F931F9315
:1017C000062FF42EE2E8F1E0E80FF11D1081812FE1
:1017D0000E94BC0B85E064E00E94990B802F60E4BE
:1017E0000E94990B8F2D68E00E94990B812F0E9417
:1017F000950B1F910F91FF900895DF92EF92FF924A
:101800000F931F93CF93DF93C0E0D0E0FE01E35529
:10181000FE4F80810E94390BD82EC032D10510F4C2
:10182000EE24FF24CE018097809718F441E0E42E47
:10183000F12CCE0180549040809718F432E0E32ED2
:10184000F12CC036D1051CF023E0E22EF12C8E01E4
:10185000000F111F4D2D50E084E0559547958A9556
:10186000E1F78E2D602F0E94DD0B0F5F1F4F8E2D35
:10187000602F4D2D0E94DD0B2196C038D10531F629
:10188000DF91CF911F910F91FF90EF90DF9008951E
:10189000FF920F931F93CF93DF938C01DC010D9088
:1018A0000020E9F71197A81BB90BED01A131B10593
:1018B00014F0C0E1D0E0CE0162E070E00E94CD13F0
:1018C00088279927861B970B089623E0880F991F76
:1018D0002A95E1F740E050E01AC0FB01F080EF2DBF
:1018E000FF27E7FDF095EE0FFF1FEE0FFF1FEE0F36
:1018F000FF1FE20FF31FE859FF4FE491ED932F5FB5
:101900003F4F2830310549F708964F5F5F4F4C171E
:101910005D074CF4DC01A355BE4F20E030E0B80178
:10192000640F751FDACF0E94FD0BDF91CF911F91DD
:101930000F91FF9008950F931F93082F10E0802FB1
:10194000612F40E00E94DD0B1F5F1034C1F71F9133
:101950000F910895EF92FF920F931F937C018B01DB
:101960008AE991E0B7010E945A088AE991E0612F63
:1019700070E00E94A60810708AE991E0B8010E9408
:10198000A6088AE991E00E94A9088AE991E0B701D6
:1019900041E050E00E94CA088AE991E00E94640890
:1019A000882311F48FEF04C08AE991E00E946A084D
:1019B0001F910F91FF90EF900895BF92CF92DF9209
:1019C000EF92FF920F931F93CF93DF93E5E3F2E043
:1019D0008FEFDF011D928A95E9F72091390330914D
:1019E0003A032115310531F4CF0160E071E00E9426
:1019F000B20540C080913803992787FD909528173C
:101A00003907B4F1EE24FF24C0E0D0E001E010E09B
:101A10006F01BB24BA9480E590E0B8010E94AA0C43
:101A20008A30D1F48091390390913A038E159F0545
:101A3000FCF080913803992787FD9095E816F90608
:101A4000C9F0F6018B2D11928A95E9F70894E11CF3
:101A5000F11CC0E0D0E005C0FE01EB5CFD4F8083CF
:101A600021960F5F1F4FA4E000301A07A1F602C0B5
:101A700010923803DF91CF911F910F91FF90EF905B
:101A8000DF90CF90BF9008951F93CF93DF9388ECA2
:101A900093E040E855E260E070E00E9426118AE998
:101AA00091E00E94CD0889E061E00E947C1088E00E
:101AB00061E00E947C10C0E0D0E0FE01EE57FE4FD6
:101AC0001081812F61E00E947C10812F61E00E94D3
:101AD0009C108C2F60E00E94C00B8C2F68E20E944B
:101AE000C00B8C2F64E10E94C00B8C2F61E00E9420
:101AF000C00B8C2F63E00E94C00B8C2F0E949B0CAC
:101B00002196C430D105C9F680E590E060E070E030
:101B10000E94AA0C8093390310923A0380E191E06D
:101B20000E94480C68EE73E080E090E00E9418107C
:101B3000EDEAF1E0119282E0E533F807D9F785E3A9
:101B400092E060E271E00E94B2050E940A10709378
:101B5000350360933403DF91CF911F910895DF9295
:101B6000EF92FF920F931F939C018B01D42E4AE9B1
:101B7000E42E41E0F42EC701B9010E945A08C701C2
:101B8000612F70E00E94A6081070C701B8010E9482
:101B9000A608C7016D2D0E947E08C7010E94A908F2
:101BA00065E070E080E090E00E9418101F910F91B6
:101BB000FF90EF90DF9008956F927F929F92AF9287
:101BC000BF92CF92DF92EF92FF920F931F93DF931A
:101BD000CF93CDB7DEB760970FB6F894DEBF0FBED8
:101BE000CDBFFE01319680E1DF011D928A95E9F7B4
:101BF00088EC93E00E941F12882309F4DDC0EDEA0F
:101C0000CE2EE1E0DE2EF6011192B2E0E533FB07C5
:101C1000D9F78E010F5F1F4F80E1F80111928A956D
:101C2000E9F788EC93E00E94331288EC93E061E0DE
:101C300070E00E94A61310923A031092390371E0EB
:101C4000E72EF12C61E0A62EB12C902E012F53E649
:101C5000652E51E0752E5CC088EC93E00E941F1247
:101C60008823D1F388EC93E00E943312182FF0E020
:101C7000EF16F4E0FF060CF04BC080E590E0B701F2
:101C8000412F0E94AF0D1A30E1F588EC93E061E03E
:101C900070E00E94A61364E670E080E090E00E948D
:101CA00018108091390390913A03019690933A036A
:101CB00080933903EDEAF1E0119222E0E533F20777
:101CC000D9F700D000D000D0EDB7FEB73196ADB750
:101CD000BEB711969C92119712960C9373826282F2
:101CE000958384830E94B905EDB7FEB736960FB68B
:101CF000F894FEBF0FBEEDBF892D902F0E94480CB7
:101D000004C01D3011F4AA24BB240894E11CF11C6A
:101D100088EC93E00E941F12882309F09DCFF1E028
:101D2000AF16B10409F498CF80E590E060E070E070
:101D3000409139030E94AF0DEDEAF1E0119222E0EB
:101D4000E533F207D9F700D000D000D0EDB7FEB7E9
:101D500031968E010F5F1F4FADB7BEB712961C9321
:101D60000E93119781E791E093838283F582E48259
:101D70000E94B905EDB7FEB736960FB6F894FEBFD0
:101D80000FBEEDBFC8010E94480C68E775E080E017
:101D900090E00E941810D6011D926D01B5E3CB169C
:101DA000B2E0DB06C1F78FEFE5E3F2E0DF011D9261
:101DB0008A95E9F71092370360960FB6F894DEBF64
:101DC0000FBECDBFCF91DF911F910F91FF90EF908C
:101DD000DF90CF90BF90AF909F907F906F900895CD
:101DE0000F931F93DF93CF93CDB7DEB760970FB6F6
:101DF000F894DEBF0FBECDBF0E94DC0D0E940A101A
:101E00002091340330913503442737FD4095542FFA
:101E1000621B730B840B950B623371058105910571
:101E200008F49EC080913603882309F082C0609137
:101E30003703462F552747FD5095E5E3F2E0019023
:101E40000020E9F73197E553F240E417F507F0F089
:101E5000FA01EB5CFD4F8081992787FD909520E08A
:101E600030E0F3E0880F991FFA95E1F7F901E80FE8
:101E7000F91FE859FF4FE491D901A35DBD4FEC93E1
:101E80002F5F3F4F2830310589F707C0EDE2F2E0C0
:101E9000119282E0E533F807D9F788E080933603A2
:101EA000E5E3F2E001900020E9F73197E553F240D5
:101EB0004E175F0728F0CF0140964817590720F4C6
:101EC0006F5F6093370335C0FE01319680E1DF011B
:101ED0001D928A95E9F782E00E944D0B0E94480C02
:101EE00060ED77E080E090E00E9418100DEA11E0CC
:101EF000F8011192B2E0E533FB07D9F783E00E94C5
:101F00004D0B0E94480C60ED77E080E090E00E946D
:101F10001810F80111928F01F2E005331F07C9F77D
:101F20000E94DD0C809138038F5F809338031092FC
:101F300037030E940A107093350360933403909125
:101F40003603992359F0EDEAF1E08181819382E033
:101F5000E433F807D1F79150909336030E94FD0BBC
:101F600060960FB6F894DEBF0FBECDBFCF91DF9164
:101F70001F910F9108950E9442100E94440D0E94EB
:101F8000F00EFDCF1F920F920FB60F9211242F93D8
:101F90003F938F939F93AF93BF9380913F03909113
:101FA0004003A0914103B091420330914303019655
:101FB000A11DB11D232F2D5F2D3720F02D57019628
:101FC000A11DB11D2093430380933F0390934003D1
:101FD000A0934103B093420380913B0390913C0353
:101FE000A0913D03B0913E030196A11DB11D8093C8
:101FF0003B0390933C03A0933D03B0933E03BF91FA
:10200000AF919F918F913F912F910F900FBE0F90A5
:102010001F9018958FB7F89420913F03309140039B
:1020200040914103509142038FBFB901CA01089505
:10203000EF92FF920F931F937B018C018FB7F8945F
:1020400040913F03509140036091410370914203DE
:102050008FBF2FB7F89480913F0390914003A091D8
:102060004103B09142032FBF841B950BA60BB70B06
:10207000E816F9060A071B0760F71F910F91FF90FA
:10208000EF900895789484B5826084BD84B58160B2
:1020900084BD85B5826085BD85B5816085BDEEE670
:1020A000F0E0808181608083E1E8F0E080818260FF
:1020B0008083808181608083E0E8F0E080818160BE
:1020C0008083E1EBF0E0808184608083E0EBF0E0EE
:1020D000808181608083EAE7F0E080818460808392
:1020E000808182608083808181608083808180683C
:1020F00080831092C1000895282F30E0C9018656D0
:10210000974FFC0194912A57374FF9018491882306
:1021100091F0E82FF0E0EE0FFF1FE859F74FA5917F
:10212000B491662329F48C91909589238C9308951A
:102130008C91892B8C930895482F50E0CA018255C9
:10214000974FFC012491CA018656974FFC01949148
:102150004A57574FFA0134913323D1F1222331F1F9
:10216000233021F4809180008F7705C0243031F432
:10217000809180008F7D8093800018C0213019F4F9
:1021800084B58F7704C0223021F484B58F7D84BD5F
:102190000DC0263021F48091B0008F7705C0273024
:1021A00029F48091B0008F7D8093B000E32FF0E0A0
:1021B000EE0FFF1FEE58F74FA591B491662329F457
:1021C0008C91909589238C9308958C91892B8C9375
:1021D00008951F920F920FB60F9211242F933F93E1
:1021E0004F935F936F937F938F939F93AF93BF931F
:1021F000EF93FF934091C600E091C403F091C503B3
:10220000CF01019660E870E00E94CD139C0180919F
:10221000C6039091C7032817390739F0EC5BFC4FD0
:1022200040833093C5032093C403FF91EF91BF9186
:10223000AF919F918F917F916F915F914F913F915E
:102240002F910F900FBE0F901F9018955F926F9275
:102250007F928F929F92AF92BF92CF92DF92EF9236
:10226000FF920F931F93CF93DF93EC013A014B0141
:10227000413482E458078FE0680780E078070CF06B
:102280007FC060E874E88EE190E0A40193010E94B1
:1022900002142150304040405040CA01B90122E0B0
:1022A00030E040E050E00E94021459016A01A601AA
:1022B0009501209530954095509594E0220F331F5D
:1022C000441F551F9A95D1F760E074E284EF90E0C7
:1022D0000E940214CA01B9012FEF30E040E050E043
:1022E0000E94AE13A40193010E940214C9018150FF
:1022F0009F4F181619061CF4522E5A9403C05524E9
:102300005394521A60E079E08DE390E0A4019301C8
:102310000E9402142150304040405040CA01B9018F
:1023200022E030E040E050E00E9402142095309519
:102330004095509583E0220F331F441F551F8A9507
:10234000D1F760E074E284EF90E00E940214CA01C9
:10235000B9012FEF30E040E050E00E94AE13A4013D
:1023600093010E940214C90181509F4F181619064B
:102370001CF4822F815002C081E0821B851500F57C
:10238000E885F98581E090E00A8802C0880F991FEE
:102390000A94E2F7808360E079E08DE390E0A401A5
:1023A00093010E9402142150304040405040CA0125
:1023B000B90122E030E040E050E00E94021404C085
:1023C000E885F98510829501EC81FD813083EE81ED
:1023D000FF812083EA85FB85208141E050E0CA012E
:1023E0000E8402C0880F991F0A94E2F7282B2083DD
:1023F000EA85FB852081CA010F8402C0880F991FDE
:102400000A94E2F7282B2083EA85FB8580810888DF
:1024100002C0440F551F0A94E2F7842B8083DF919A
:10242000CF911F910F91FF90EF90DF90CF90BF90D1
:10243000AF909F908F907F906F905F900895DC0198
:102440001296ED91FC911397E058FF4F8191919175
:1024500080589F4F20813181821B930B60E870E090
:102460000E94CD130895CF93DF93DC011296ED9176
:10247000FC911397EF01CE57DF4F48815981E05807
:10248000FF4F80819181E058F0408417950719F43F
:102490002FEF3FEF0CC0E40FF51F2081CA0101961A
:1024A00060E870E00E94CD139983888330E0C90111
:1024B000DF91CF910895FC01A085B18521898C9190
:1024C00090E0022E02C0959587950A94E2F780FF6E
:1024D000F6CF0484F585E02D608308958AE891E0C5
:1024E0009093C9038093C80384E493E09093CB0353
:1024F0008093CA0385EC90E09093CD038093CC0346
:1025000084EC90E09093CF038093CE0380EC90E036
:102510009093D1038093D00381EC90E09093D30308
:102520008093D20386EC90E09093D5038093D403FC
:1025300084E08093D60383E08093D70387E0809381
:10254000D80385E08093D90381E08093DA0308956E
:102550000F931F93CF93DF938C01EB0109C021965A
:10256000D801ED91FC910190F081E02DC801099511
:1025700068816623A1F7DF91CF911F910F91089594
:10258000EF92FF920F931F93CF93DF938C017B0108
:10259000EA010CC0D7016D917D01D801ED91FC914C
:1025A0000190F081E02DC80109952197209791F7BE
:1025B000DF91CF911F910F91FF90EF900895DC0173
:1025C000ED91FC910190F081E02D099508952F92F5
:1025D0003F924F925F926F927F928F929F92AF92B3
:1025E000BF92CF92DF92EF92FF920F931F93DF93F0
:1025F000CF93CDB7DEB7A0970FB6F894DEBF0FBE6E
:10260000CDBF1C016A017B014115510561057105B2
:1026100049F4DC01ED91FC910190F081E02D60E343
:10262000099554C0882499245401422E55246624C7
:10263000772401E010E00C0F1D1F080D191DC701C4
:10264000B601A30192010E94E013F801608308948F
:10265000811C911CA11CB11CC701B601A3019201F0
:102660000E94E013C901DA016C017D01C114D1049B
:10267000E104F104F1F681E0E82EF12CEC0EFD1EF0
:10268000E80CF91C3E010894611C711CD501C401C1
:102690000197A109B1096C01C818D90814C0F60145
:1026A000EE0DFF1D60816A3010F4605D01C0695C51
:1026B000D101ED91FC910190F081E02DC1010995CE
:1026C0000894E108F1086E147F0449F7A0960FB64C
:1026D000F894DEBF0FBECDBFCF91DF911F910F9158
:1026E000FF90EF90DF90CF90BF90AF909F908F9032
:1026F0007F906F905F904F903F902F900895EF9252
:10270000FF920F931F93CF93DF93EC017A018B011C
:1027100077FF0FC0E881F9810190F081E02D6DE233
:10272000099510950095F094E094E11CF11C011DB1
:10273000111DCE01B801A7012AE00E94E712DF9126
:10274000CF911F910F91FF90EF900895AB016627F5
:1027500057FD6095762F0E947F130895629FD001E8
:10276000739FF001829FE00DF11D649FE00DF11D4C
:10277000929FF00D839FF00D749FF00D659FF00DFB
:102780009927729FB00DE11DF91F639FB00DE11DE8
:10279000F91FBD01CF011124089597FB092E0726CB
:1027A0000AD077FD04D049D006D000201AF47095E5
:1027B00061957F4F0895F6F7909581959F4F089505
:1027C000A1E21A2EAA1BBB1BFD010DC0AA1FBB1F35
:1027D000EE1FFF1FA217B307E407F50720F0A21BA7
:1027E000B30BE40BF50B661F771F881F991F1A9414
:1027F00069F760957095809590959B01AC01BD013E
:10280000CF01089597FB092E05260ED057FD04D061
:10281000D7DF0AD0001C38F45095409530952195AB
:102820003F4F4F4F5F4F0895F6F790958095709505
:1028300061957F4F8F4F9F4F0895AA1BBB1B51E19E
:1028400007C0AA1FBB1FA617B70710F0A61BB70B20
:10285000881F991F5A95A9F780959095BC01CD01C5
:102860000895EE0FFF1F0590F491E02D09942F922B
:102870003F924F925F926F927F928F929F92AF9210
:10288000BF92CF92DF92EF92FF920F931F93CF935D
:10289000DF93CDB7DEB7CA1BDB0B0FB6F894DEBFF4
:1028A0000FBECDBF09942A88398848885F846E841A
:1028B0007D848C849B84AA84B984C884DF80EE8064
:1028C000FD800C811B81AA81B981CE0FD11D0FB66D
:1028D000F894DEBF0FBECDBFED010895F894FFCF91
:1028E0004E6F20686179206D656E73616A65730053
:1028F000427269636F436C6F636B2076312E3000D8
:102900004F7363617220476F6E7A616C657A2C2019
:102910004D61796F2032303130202D207777772E3E
:10292000427269636F4765656B2E636F6D004D651D
:102930006D6F72792064756D703A0044756D70200A
:102940006F6B0046656564207469746C652025644E
:102950000028256420627974657329002000DF0354
:1029600000000A0B0C0D000000005B12A812C01240
:00000001FF
