:100000000C9405010C9430010C9430010C943001D7
:100010000C9430010C9430010C9430010C9430019C
:100020000C9430010C9430010C9430010C9430018C
:100030000C9430010C9430010C9430010C9430017C
:100040000C9430010C9430010C9430010C9430016C
:100050000C9430010C9430010C9430010C94781203
:100060000C9430010C94D1140C9430010C94300198
:100070000C9430010C9430010C9430010C9430013C
:100080000C9430010C9430010C9430010C9430012C
:100090000C9412150C9430010C9430010C94B2069F
:1000A0000C9430010C9430010C9430010C9430010C
:1000B0000C9430010C9430010C9430010C943001FC
:1000C0000C9430010C9430010C9430010C945315B5
:1000D0000C9430010C9430010C9494150C94300164
:1000E0000C94300100002100240027002A002D007C
:1000F0003000330001010000040107010A01000083
:100100002200250028002B002E00310034000201BF
:100110000000050108010B0100002000230026005B
:1001200029002C002F00320000010000030106010D
:10013000090105050505070508080808020202026D
:100140000A0A080804040404010101010101010173
:100150000303030303030303040707070C0C0C0C3E
:100160000C0C0C0C02020202060606060606060627
:100170000B0B0B0B0B0B0B0B0102102020080810B4
:100180002040102040800201020108040201010207
:1001900004081020408080402010080402018004E0
:1001A000020180402010080402010804020101023B
:1001B0000408102040800102040810204080000044
:1001C000090A02080B0C0D070603040100000000D9
:1001D000000000000000000000000000000000001F
:1001E00000000000000000000000100F0E000000E2
:1001F00000000000000000000000000000000000FF
:1002000000000000A9055409291711241FBECFEFD3
:10021000D1E2DEBFCDBF13E0A0E0B2E0EEE5F5E352
:1002200000E00BBF02C007900D92AE3EB107D9F7B8
:100230001BBE17E0AEEEB3E001C01D92A931B107BD
:10024000E1F712E0CAE0D2E004C02297FE010E946A
:10025000721AC430D107C9F70E9471120C94AD1AFA
:100260000C9400000F931F93CF93DF93689F80013E
:10027000699F100D789F100D1124C8010E944E0136
:10028000EC01009729F060E070E0A8010E946E0286
:10029000CE01DF91CF911F910F910895CF93DF93FE
:1002A000BC018230910510F462E070E0A091170764
:1002B000B0911807ED01E0E0F0E040E050E021C02F
:1002C000888199818617970769F48A819B81309785
:1002D00019F09383828304C09093180780931707C3
:1002E000FE0134C06817790738F44115510519F03B
:1002F0008417950708F4AC01FE018A819B819C015B
:10030000E9012097E9F641155105A9F1CA01861BBB
:10031000970B049708F4BA01E0E0F0E02AC08D9151
:100320009C91119784179507F9F46417750781F468
:1003300012968D919C911397309719F09383828335
:1003400004C09093180780931707FD0132964CC0A4
:10035000CA01861B970BFD01E80FF91F619371938A
:1003600002978D939C9340C0FD01828193819C01F3
:10037000D9011097A1F68091150790911607892B46
:1003800041F48091CF039091D0039093160780930E
:1003900015074091D1035091D2034115510541F405
:1003A0004DB75EB78091CD039091CE03481B590B9A
:1003B0002091150730911607CA01821B930B8617EF
:1003C000970780F0AB014E5F5F4F8417950750F0A1
:1003D000420F531F5093160740931507F90161937D
:1003E000719302C0E0E0F0E0CF01DF91CF9108957A
:1003F000CF93DF93009709F450C0EC0122971B8242
:100400001A82A0911707B0911807109709F140E0E0
:1004100050E0AC17BD0708F1BB83AA83FE01219110
:100420003191E20FF31FAE17BF0779F48D919C91C4
:100430001197280F391F2E5F3F4F3983288312965B
:100440008D919C9113979B838A834115510571F47B
:10045000D0931807C093170720C012968D919C91D6
:100460001397AD01009711F0DC01D3CFFA01D383CC
:10047000C28321913191E20FF31FCE17DF0769F498
:1004800088819981280F391F2E5F3F4FFA013183F0
:1004900020838A819B8193838283DF91CF9108950A
:1004A000FC0188279927E89421912032E9F329302B
:1004B00010F02E30C8F32B3241F02D3239F468940D
:1004C00004C00E94C602820F911D219120532A3040
:1004D000C0F31EF4909581959F4F0895DC0101C0F3
:1004E0006D9341505040E0F70895FB01DC018D9180
:1004F000019080190110D9F3990B0895DC01FB01DB
:100500004115510549F04150504029F001900D929C
:10051000002029F0F8CF1C9201900020E9F7E61B9B
:10052000F70B3197CF010895009731F4DA018D91DF
:100530009C91009709F40EC0DC01FB013D912191D3
:10054000222319F03217C9F3FACF332331F4DA0139
:100550001D921C928827992708951197AF93BF93F6
:10056000FB013D912191321771F4332321F4882747
:100570009927119702C01E921196FA01A193B08398
:100580009F918F910895222369F7EACF7AE0979F90
:10059000902D879F802D910D11240895AEE0B0E03D
:1005A000E4EDF2E00C94841A0D891E8986E08C83B8
:1005B0001A8309838FEF9FE79E838D839E01275EB9
:1005C0003F4FCE0101966F89788DA9010E94F202FA
:1005D0002F813885020F131FF80110822E96E4E058
:1005E0000C94A01AABE0B0E0E8EFF2E00C94761ABD
:1005F0003C012B015A01FC0117821682838181FD87
:1006000003C06FEF7FEFC6C19AE0892E1E010894E8
:10061000211C311CF3012381F20123FD859123FF6D
:1006200081912F01882309F4B2C1853239F423FD69
:10063000859123FF81912F01853229F490E0B30148
:100640000E94E504E7CF982FFF24EE249924FFE1D0
:10065000FF15D0F09B3269F09C3228F4903259F0AB
:10066000933291F40EC09D3249F0903369F441E029
:1006700024C052E0F52A84E0F82A28C098E0F92A3C
:1006800025C0E0E1FE2A22C0F7FC29C0892F805353
:100690008A3070F4F6FE05C0989C902C1124980EB8
:1006A00015C0E89CE02C1124E80EF0E2FF2A0EC0F1
:1006B0009E3229F4F6FC6BC140E4F42A07C09C3654
:1006C00019F450E8F52A02C0983649F4F20123FDE6
:1006D000959123FF91912F01992309F0B8CF892F8C
:1006E0008554833018F08052833038F444E050E071
:1006F000A40EB51E5FE359830FC0933631F09337D4
:1007000079F0933509F056C020C0F50180818983C6
:1007100042E050E0A40EB51E610101E010E012C0FD
:10072000F501C080D180F6FC03C06FEF7FEF02C0FF
:10073000692D70E042E050E0A40EB51EC6010E9493
:10074000DA048C015FE7F52214C0F501C080D18086
:10075000F6FC03C06FEF7FEF02C0692D70E042E04E
:1007600050E0A40EB51EC6010E94CF048C0150E8D3
:10077000F52AF3FE07C01AC080E290E0B3010E94A0
:10078000E504EA948E2D90E008171907A8F30EC02F
:10079000F601F7FC8591F7FE81916F0190E0B301BE
:1007A0000E94E504E110EA94015010400115110582
:1007B00079F7EAC0943611F0993669F5F7FE08C06A
:1007C000F501208131814281538184E090E00AC0AB
:1007D000F501808191819C01442737FD4095542F7C
:1007E00082E090E0A80EB91E9FE6F92257FF09C0EB
:1007F00050954095309521953F4F4F4F5F4FE0E822
:10080000FE2ACA01B901A1012AE030E00E941105C7
:10081000D82ED21840C0953729F41F2D1F7E2AE00C
:1008200030E01DC01F2D197F9F3661F0903720F4F6
:10083000983509F0ACC00FC0903739F0983709F0FF
:10084000A6C004C028E030E00AC0106114FD1460A6
:1008500020E130E004C014FD166020E132E017FF13
:1008600008C0F501608171818281938144E050E08C
:1008700008C0F50180819181BC0180E090E042E0F8
:1008800050E0A40EB51EA1010E941105D82ED21869
:100890008FE7F82EF122F6FE0BC05EEFF522D91499
:1008A00038F4F4FE07C0F2FC05C08FEEF82202C057
:1008B0001D2D01C0192DF4FE0DC0FE01ED0DF11D21
:1008C0008081803319F499EEF92208C01F5FF2FE8F
:1008D00005C003C08F2D867809F01F5F0F2DF3FC34
:1008E00014C0F0FE0FC01E1510F09D2C0BC09D2CE7
:1008F0009E0C911A1E2D06C080E290E0B3010E946A
:10090000E5041F5F1E15C0F304C01E1510F4E11AA4
:1009100001C0EE2404FF0FC080E390E0B3010E9409
:10092000E50402FF1DC001FD03C088E790E00EC092
:1009300088E590E00BC0802F867891F001FF02C01F
:100940008BE201C080E2F7FC8DE290E0B3010E94EF
:10095000E50406C080E390E0B3010E94E5049A94A8
:10096000D914C0F3DA94F101ED0DF11D808190E00E
:10097000B3010E94E504DD20A9F706C080E290E003
:10098000B3010E94E504EA94EE20C1F743CEF301DF
:1009900066817781CB012B96E2E10C94921AFC01DF
:1009A0000590615070400110D8F7809590958E0F9A
:1009B0009F1F0895FC016150704001900110D8F70D
:1009C000809590958E0F9F1F08950F931F93CF933F
:1009D000DF938C01EB018B8181FF1BC082FF0DC077
:1009E0002E813F818C819D812817390764F4E8812D
:1009F000F9810193F983E88306C0E885F985802FA2
:100A00000995892B31F48E819F8101969F838E8376
:100A100002C00FEF1FEFC801DF91CF911F910F911F
:100A20000895FA01AA27283051F1203181F1E89484
:100A30006F936E7F6E5F7F4F8F4F9F4FAF4FB1E0D1
:100A40003ED0B4E03CD0670F781F891F9A1FA11DCC
:100A5000680F791F8A1F911DA11D6A0F711D811DCD
:100A6000911DA11D20D009F468943F912AE0269F92
:100A700011243019305D3193DEF6CF010895462FF1
:100A80004770405D4193B3E00FD0C9F7F6CF462FD2
:100A90004F70405D4A3318F0495D31FD405241933B
:100AA00002D0A9F7EACFB4E0A695979587957795F8
:100AB0006795BA95C9F700976105710508959B017F
:100AC000AC010A2E06945795479537952795BA9508
:100AD000C9F7620F731F841F951FA01D0895F99910
:100AE000FECF72BD61BDF89A80B50895F999FECF29
:100AF0001FBA72BD61BD40BD0FB6F894FA9AF99A5B
:100B00000FBE089581E08093F8036093F303109281
:100B1000F6031092F703089581E08093F803609341
:100B2000F3031092F6031092F70308959091F103E6
:100B30008091F203981710F080E00895E091EF03A0
:100B4000F091F003E90FF11D80819F5F9093F10315
:100B500008950895DF93CF930F92CDB7DEB76983E1
:100B60008091F8038823A9F08091F7038032B0F4D4
:100B70008091F603E091F403F091F503E80FF11D85
:100B800060838091F6038F5F8093F6038093F70371
:100B900005C0CE01019661E00E9495060F90CF91AD
:100BA000DF9108950E94AA0508956091F403709161
:100BB000F5038091F3034091F70321E00E94500672
:100BC0001092F6031092F7031092F8030895862FFF
:100BD0006091EF037091F003413208F040E20E940F
:100BE00018061092F1038093F20308950E94E7051E
:100BF000089580E290E061E070E00E94320180930D
:100C0000EF039093F0031092F1031092F20380E24D
:100C100090E061E070E00E9432018093F4039093D1
:100C2000F5031092F6031092F7030E943808089516
:100C3000982F413210F040E031C08091FA038823B0
:100C4000E1F781E08093FA038FEF80930B04109219
:100C500002044150409303044F5F990F91609093B9
:100C6000FB0385EE8093BC008091FA038130E1F3B1
:100C700080910204841710F440910204A0910004B2
:100C8000B091010420E030E007C0FB01E20FF31F48
:100C90008D9180832F5F3F4F2417B8F3842F0895E1
:100CA0001F93582F122F413210F081E03CC08091E9
:100CB000FA038823E1F782E08093FA038FEF8093B1
:100CC0000B041092020440930304A0910004B0911D
:100CD0000104FB0102C081918D938E2F861B841726
:100CE000D0F3852F90E0880F991F8093FB0385EE4A
:100CF0008093BC00112321F08091FA038230E1F34C
:100D000080910B048F3F11F480E00DC080910B04A3
:100D1000803211F482E007C080910B04803311F01F
:100D200084E001C083E01F910895482F613210F0E4
:100D300081E008958091FA03843011F082E00895F3
:100D400060930704A0910404B0910504842F9C01D2
:100D5000F90102C081918D938E2F841B8617D0F3E9
:100D600080E008951F920F920FB60F920BB60F926C
:100D700011242F933F934F935F936F937F938F93A0
:100D80009F93AF93BF93EF93FF938091B90090E04F
:100D9000887F90708036910509F4E2C08136910514
:100DA000CCF58832910509F47BC089329105B4F401
:100DB0008031910509F46FC0813191053CF40097B1
:100DC00009F438C1089709F040C165C08831910520
:100DD00009F466C0809709F038C17FC0803491055E
:100DE00009F4A3C08134910544F48033910509F4DA
:100DF0007FC0C89709F029C186C08035910509F4E4
:100E000086C08835910509F495C08834910509F0AC
:100E10001CC19EC08839910509F404C18939910526
:100E2000ECF48837910509F49BC0893791054CF49F
:100E30008836910509F494C08037910509F005C101
:100E40008FC08838910509F4EDC08039910509F407
:100E50008DC08038910509F0F8C088C0803B9105AD
:100E600009F4B2C0813B91054CF4803A910509F434
:100E700091C0883A910509F0E8C0A6C0803C910570
:100E800009F4D4C0883C910509F4D0C0883B910591
:100E900009F0DBC0B1C08091FB038093BB00C0C0F0
:100EA0009091020480910304981778F490910204C1
:100EB000E0910004F0910104E90FF11D808180931D
:100EC000BB009F5F90930204ABC085ED8093BC0094
:100ED0008091BC0084FDFCCFB6C080E280930B04FF
:100EE00085ED8093BC008091BC0084FDFCCFABC03D
:100EF00080E380930B0485ED8093BC008091BC005F
:100F000084FDFCCFA0C088E380930B048FC0809148
:100F100002049091BB00E0910004F0910104E80FFD
:100F2000F11D90838F5F8093020490910204809161
:100F3000030474C0809102049091BB00E09100040E
:100F4000F0910104E80FF11D90838F5F80930204FC
:100F500085ED8093BC008091BC0084FDFCCF73C004
:100F600083E08093FA0310920A045AC080910A0425
:100F7000803208F057C080910A049091BB00E09144
:100F80000804F0910904E80FF11D90838F5F8093AE
:100F90000A0446C080910A04803248F480910A0411
:100FA000E0910804F0910904E80FF11D10826091AE
:100FB0000A04E091FE03F091FF03809108049091F0
:100FC000090470E0099532C084E08093FA0310921E
:100FD000060410920704E091FC03F091FD030995CB
:100FE00080910704882341F481E080930704E09115
:100FF0000404F0910504108290910604E091040429
:10100000F0910504E90FF11D80818093BB009F5F83
:10101000909306049091060480910704981710F4A9
:1010200085EC01C085E88093BC000FC085EC8093FF
:10103000BC0009C010920B0485ED8093BC00809128
:10104000BC0084FDFCCF1092FA03FF91EF91BF9199
:10105000AF919F918F917F916F915F914F913F9150
:101060002F910F900BBE0F900FBE0F901F901895F1
:101070001092FA03589A599AE9EBF0E080818E7F3A
:10108000808380818D7F808388E48093B80085E4AD
:101090008093BC0080E290E061E070E00E94320149
:1010A000809300049093010480E290E061E070E09E
:1010B0000E943201809304049093050480E290E042
:1010C00061E070E00E94320180930804909309046B
:1010D0000895FC011282118280E287831086E55711
:1010E000FF4F80E881938FE78083EC58F0401286B1
:1010F0001082148213821682158281E081870895FE
:10110000FC01728361830895CF93DF93EC01188211
:101110001616170684F56A30710569F16D30710590
:1011200021F06115710539F110C08A85FE01E80FC3
:10113000F11D13861A861E821D8281E089878883AD
:10114000CE010B969C838B8316C08A85FE01E80F27
:10115000F11D63878F5F8A87C457DF4F9881CC5812
:10116000D040891740F01A8618821C821B821E828A
:101170001D8281E089878881813029F4E981FA81A3
:10118000309709F009958881DF91CF910895CF9329
:10119000DF93EC0188818823F9F0813019F020E099
:1011A00030E005C09E01255F3F4F82E0888389853E
:1011B000882359F0BE01695F7F4FAE014B5F5F4FDF
:1011C000C9010E9494029C838B838B819C81892B13
:1011D00019F0198681E001C080E0DF91CF91089578
:1011E0000E94C70808950F931F93CF93DF93EC01DC
:1011F0008B010E94C708882351F06B817C81C80154
:101200000E947502009721F481E0898702C001C025
:1012100080E0DF91CF911F910F910895FF920F937E
:101220001F93CF93DF93EC018B01F42E0E94C7082C
:10123000882351F081E089876B817C81C8014F2D23
:1012400050E00E947E0204C0FF2011F0F8011082DD
:10125000DF91CF911F910F91FF900895CF93DF936E
:10126000EC010E94C708882319F420E030E007C091
:1012700081E089878B819C810E9450029C01C90179
:10128000DF91CF910895482F6AE00E94001A282F1D
:1012900030E084E0220F331F8A95E1F7842F0E940B
:1012A000001A892F820F089587E194E00E9469084F
:1012B00008950F931F93BC0102E017E0C8010E943C
:1012C0003018C80160E072E00E9430181F910F9141
:1012D00008950F931F93DF93CF93CDB7DEB7CD570C
:1012E000D0400FB6F894DEBF0FBECDBF87E194E0CB
:1012F0000E94F008882341F414C087E194E0B8010B
:101300004DE70E940E0903C08E010F5F1F4F87E15A
:1013100094E00E94F008882381F781E292E00E9425
:101320005909C358DF4F0FB6F894DEBF0FBECDBFCB
:10133000CF91DF911F910F910895CF93DF93DC013F
:1013400080E28C93ED0109900020E9F72197CA1BF8
:10135000DB0BFD0120E030E0AE014150504004C005
:10136000818181932F5F3F4F24173507CCF3AC0F5A
:10137000BD1F11971C92DF91CF9108951F93182FD5
:101380008FE2612F0E94791381E3612F0E9479130C
:1013900083E3612F0E94791385E3612F0E94791303
:1013A0001F9108950F931F93082F162F61E00E943D
:1013B0005913812F61E00E945913802F61E00E9430
:1013C0007913812F61E00E947913812F60E00E94E0
:1013D00079131F910F910895CF93DF9389EC96E0D5
:1013E00064E272E00E944F188EEE93E060E070E0DD
:1013F0000E946F05873579F58EEE93E061E070E02D
:101400000E946F05833439F589EC96E06FE372E052
:101410001DC08EEE93E0BE0140E00E94760521964D
:1014200080E1C030D807A9F78EEE93E060E070E06D
:1014300047E50E9476058EEE93E061E070E043E4BC
:101440000E94760589EC96E06EE172E00E944F18EA
:10145000DF91CF91089589EC96E067E572E00E94F4
:101460003018C0E0D0E0D5CFEF92FF920F931F93DA
:10147000282FF62EE42E09EF13E0C801622F0E94F8
:101480008205C8016F2D0E94AA05E3EDF3E0EE0D81
:10149000F11DC80160810E94AA05C8010E94D505FE
:1014A0001F910F91FF90EF900895EF92FF920F938D
:1014B0001F93182F062FE42E8A3054F488E361E03E
:1014C00040E00E94340A88E362E0412F0E94340A1F
:1014D00096EFF92EF10E89E08F1550F088E361E068
:1014E00041E00E94340A88E362E04F2D0E94340AF2
:1014F00014315CF088E361E042E00E94340A145148
:1015000088E362E0412F0E94340A0A3054F488E3F1
:1015100063E040E00E94340A88E364E0402F0E94C8
:10152000340A102F1A501A3050F488E363E041E077
:101530000E94340A88E364E0412F0E94340A102F8D
:1015400014511A3050F488E363E042E00E94340AF8
:1015500088E364E0412F0E94340A102F1E511A3094
:1015600050F488E363E043E00E94340A88E364E0D7
:10157000412F0E94340A102F18521A3050F488E379
:1015800063E044E00E94340A88E364E0412F0E9453
:10159000340A02335CF088E363E045E00E94340AD9
:1015A000025388E364E0402F0E94340A89E08E15DC
:1015B00054F08BE361E040E00E94340A8BE362E088
:1015C0004E2D0E94340A1E2D1A501A3050F48BE30F
:1015D00061E041E00E94340A8BE362E0412F0E9407
:1015E000340A1E2D14511A3050F48BE361E042E0AE
:1015F0000E94340A8BE362E0412F0E94340A1E2DC0
:101600001E511A3050F48BE361E043E00E94340A2B
:101610008BE362E0412F0E94340A1E2D18521A30CB
:1016200050F48BE361E044E00E94340A8BE362E013
:10163000412F0E94340A81E38E1564F48BE361E04C
:1016400045E00E94340A8EECE80E8BE362E04E2DFA
:101650000E94340A1F910F91FF90EF9008950F930D
:101660001F9309EC16E0C8016FE772E00E94301882
:1016700088E365E048E00E94340A88E366E048E0D9
:101680000E94340A88E367E048E00E94340A88E355
:1016900068E048E00E94340A88E363E048E00E9482
:1016A000340A88E364E048E00E94340A66E970E0A6
:1016B00080E090E00E94CE1288E362E048E00E9461
:1016C000340A8BE361E048E00E94340A66E970E086
:1016D00080E090E00E94CE1288E361E048E00E9442
:1016E000340A8BE362E048E00E94340A66E970E065
:1016F00080E090E00E94CE12C8016EE172E00E948C
:101700004F181F910F9108950F931F9309EF13E046
:10171000C80168E370E00E948C05C80160E070E0D9
:101720000E94D205C80167E470E00E94D205C8019A
:1017300060E070E00E94D205C80160E070E00E94A5
:10174000D205C80160E070E00E94D205C80160E0E7
:1017500070E00E94D205C8010E94D50562E370E0E6
:1017600080E090E00E94CE12C8016BE370E00E941E
:101770008C05C80160E070E00E94D205C80167E4F2
:1017800070E00E94D205C80160E070E00E94D205BE
:10179000C80160E070E00E94D205C80160E070E01E
:1017A0000E94D205C80160E070E00E94D205C80125
:1017B0000E94D50562E370E080E090E00E94CE12C6
:1017C0001F910F910895EF92FF920F931F9329ECB1
:1017D000E22E26E0F22EC7016FE872E00E94301878
:1017E00009EF13E0C80168E670E00E948C05C801AB
:1017F00067E070E00E94D205C80160E970E00E94D5
:10180000D205C8010E94D505C7016EE172E00E94B1
:101810004F181F910F91FF90EF9008959F92AF92F4
:10182000BF92CF92DF92EF92FF920F931F93182FE8
:10183000F62ED42E922E39EFA32E33E0B32EC5010F
:1018400068E670E00E948C05C50160E070E00E94CF
:10185000D205812F0E944309682FC5010E94AA0565
:101860008F2D0E944309682FC5010E94AA058D2D66
:101870000E944309682FC5010E94AA05892D0E9474
:101880004309682FC5010E94AA05802F0E944309C1
:10189000682FC5010E94AA058E2D0E944309682F5A
:1018A000C5010E94AA058C2D0E944309682FC5011D
:1018B0000E94AA05C5010E94D5051F910F91FF90B6
:1018C000EF90DF90CF90BF90AF909F9008951F93BF
:1018D000CF93DF93182F60E00E945913C0E0D0E04F
:1018E0006AE070E080E090E00E94CE12812F0E94BA
:1018F0000414892B21F02196C436D10589F7DF9194
:10190000CF911F910895CF92DF92EF92FF920F93A4
:101910001F93CF93DF93C82ED62E7A01C0E0D0E07C
:1019200000E010E011C08D2D61E00E947913CC0F12
:10193000DD1F8C2D0E940414C80FD91F8D2D60E06F
:101940000E9479130F5F1F4F0E151F0564F3CE0120
:10195000DF91CF911F910F91FF90EF90DF90CF908B
:101960000895CF92DF92EF92FF920F931F93F82E7C
:10197000D92EE62EC72E60E00E9459138E2D61E00D
:101980000E9459138F2D9D2D6E2D7C2D48E050E027
:101990000E94830C182F00E08F2D61E00E945913E4
:1019A0008F2D61E00E9479138F2D60E00E947913E2
:1019B0008E2D61E00E9479138E2D60E00E947913D4
:1019C0008F2D60E00E9459138F2D9D2D6E2D7C2D43
:1019D00048E050E00E94830C082B192BC8011F918E
:1019E0000F91FF90EF90DF90CF900895FF920F93AB
:1019F0001F93F82E062F142F862F61E00E94591393
:101A0000812F61E00E945913802F61E00E947913B9
:101A1000812F61E00E947913802F60E00E9479138A
:101A2000812F60E00E947913812F61E00E94791379
:101A3000802F61E00E947913812F60E00E9479136A
:101A4000802F612F41E02F2D0E949014812F61E0A3
:101A50000E947913802F60E00E945913802F0E940A
:101A60000414812F60E00E947913802F0E940414D7
:101A70001F910F91FF900895AF92BF92CF92DF9286
:101A8000EF92FF920F931F9385E090E063E070E088
:101A900042E050E00E94F60C83E090E00E94670C68
:101AA00083E090E062E070E00E94B10C9093A904A2
:101AB0008093A80483E090E062E070E00E94D20985
:101AC0006091A8047091A904882777FD8095982FCC
:101AD0000E94F2187B018C0124E533EE45E25DE3C0
:101AE0000E947E1920E030E040E850E40E945A183D
:101AF0005B016C01C801B70122EA37EE4BE356EBFC
:101B00000E947E19A80197010E947E199B01AC01D9
:101B1000C601B5010E945B186093A4047093A504EC
:101B20008093A6049093A7040E94BF18CB011F9135
:101B30000F91FF90EF90DF90CF90BF90AF900895FE
:101B400083E090E063E070E042E050E00E94F60C39
:101B500083E090E00E94670C83E090E062E070E038
:101B60000E94B10C9093AF048093AE0483E090E0A8
:101B700062E070E00E94D2096091AE047091AF04FF
:101B8000882777FD8095982F0E94F2182AE037ED7C
:101B900043E25CE30E947E1920E030E040E252E440
:101BA0000E945A186093AA047093AB048093AC040B
:101BB0009093AD040E94BF18CB0108952F923F92DD
:101BC0004F925F926F927F928F929F92AF92BF924D
:101BD000CF92DF92EF92FF920F931F93DF93CF93F9
:101BE000CDB7DEB7CD5FD0400FB6F894DEBF0FBEE5
:101BF000CDBFFE01E258FF4F80E8DF011D928A95BC
:101C0000E9F74E010894811C911C8DE7D4011D92C7
:101C10008A95E9F75F016CEE462E62E0562E34019C
:101C200057E1252E53E0352E9BC187E194E066EA0B
:101C300072E00E94F308882309F4EBC087E194E086
:101C40006AEA72E00E94F308882321F082EB92E0B6
:101C50000E94590987E194E066EB72E00E94F30864
:101C6000882309F100D000D000D0EDB7FEB731963F
:101C7000ADB7BEB71296BC92AE9211978AEB92E0C6
:101C80009383828380911304848315820E94CE0201
:101C9000ADB7BEB716960FB6F894BEBF0FBEADBFB8
:101CA000C5010E94590987E194E06DEB72E00E9442
:101CB000F308882361F1EDB7FEB73A970FB6F894B1
:101CC000FEBF0FBEEDBF3196ADB7BEB71296BC9248
:101CD000AE92119782EC92E09383828380911204FA
:101CE0008483158280911104868317828091100469
:101CF000808711860E94CE02ADB7BEB71A960FB686
:101D0000F894BEBF0FBEADBFC5010E94590987E15F
:101D100094E061ED72E00E94F308882361F1EDB771
:101D2000FEB73A970FB6F894FEBF0FBEEDBF3196DF
:101D3000ADB7BEB71296BC92AE92119786ED92E007
:101D40009383828380911404848315828091150487
:101D50008683178280911604808711860E94CE02A6
:101D6000ADB7BEB71A960FB6F894BEBF0FBEADBFE3
:101D7000C5010E94590987E194E067EE72E00E9474
:101D8000F3088823F9F00E94A00D00D000D000D005
:101D9000EDB7FEB73196ADB7BEB71296BC92AE9214
:101DA000119753824282958384830E94CE02EDB7BD
:101DB000FEB736960FB6F894FEBF0FBEEDBFC50155
:101DC0000E94590987E194E061EF72E00E94F308F4
:101DD0008823F9F00E943C0D00D000D000D0EDB770
:101DE000FEB73196ADB7BEB71296BC92AE921197C0
:101DF00053824282958384830E94CE02EDB7FEB760
:101E000036960FB6F894FEBF0FBEEDBFC5010E9417
:101E1000590987E194E066EF72E00E94F308882395
:101E2000E9F187E194E06DEB72E00E94F30888230A
:101E300041F187E194E00E942E09D82E87E194E0D9
:101E40000E942E09F82E87E194E00E942E09182F97
:101E500087E194E00E942E09082F87E194E00E9418
:101E60002E09E82E87E194E00E942E09C82E812FCA
:101E70006F2D4D2D20E00E940E0C8EE192E00E940D
:101E8000590987E194E06AEF72E00E94F308882321
:101E900029F081E093E00E945909FFCF87E194E0A7
:101EA0006EE073E00E94F308882309F453C087E1D1
:101EB00094E061E173E00E94F308882329F08FEE3B
:101EC00096E065E173E044C080E8D5011D928A95F3
:101ED000E9F78DE7F30111928A95E9F727C087E1C9
:101EE00094E0B4014DE70E940E098DB79EB70897A4
:101EF0000FB6F8949EBF0FBE8DBFEDB7FEB73196FB
:101F0000ADB7BEB71296BC92AE92119733822282C1
:101F1000B582A482778266820E94CE02EDB7FEB7B8
:101F200038960FB6F894FEBF0FBEEDBF87E194E080
:101F30000E94F008882399F6C5010E949D098FEE42
:101F400096E0B5010E9430188FEE96E060E072E0F6
:101F50000E9430180E94690989EC96E00E940A17D5
:101F600087E194E00E94F008882309F05ECEC35018
:101F7000DF4F0FB6F894DEBF0FBECDBFCF91DF911C
:101F80001F910F91FF90EF90DF90CF90BF90AF9097
:101F90009F908F907F906F905F904F903F902F9089
:101FA00008952F923F924F925F926F927F928F92FD
:101FB0009F92AF92BF92CF92DF92EF92FF920F93D8
:101FC0001F93CF93DF935C014B013A012901180164
:101FD000E70109EF13E0C80168E670E00E948C0594
:101FE000C80160E070E00E94D205C8010E94D505DA
:101FF000C80168E670E047E050E00E94F605C801BD
:102000000E949605282F2F7722952F707AE0F72EC1
:102010002F9D900111248F70820FF5018083C801DC
:102020000E949605282F22952F702F9D9001112434
:102030008F70820FF4018083C8010E949605282FBB
:102040002F7322952F702F9D900111248F70820F76
:10205000F3018083C8010E949605282F22952F70D6
:102060002F9D900111248F70820FF2018083C8018F
:102070000E949605282F22952F702F9D90011124E4
:102080008F70820FF1018083C8010E949605282F6E
:1020900022952F702F9D900111248F70820F8883BD
:1020A000C8010E949605282F22952F702F9D900120
:1020B00011248F70820FF6018083DF91CF911F91E1
:1020C0000F91FF90EF90DF90CF90BF90AF909F90D7
:1020D0008F907F906F905F904F903F902F900895DA
:1020E000CF92DF92EF92FF920F931F93DF93CF93E4
:1020F000CDB7DEB761970FB6F894DEBF0FBECDBF88
:1021000080E1FE013296DF011D928A95E9F70E9477
:10211000C01220910C0430910D0440910E04509196
:102120000F04621B730B840B950B685E7340804039
:10213000904080F180E194E061E174E042E154E09C
:1021400023E134E004E114E0B5E1EB2EB4E0FB2E32
:10215000A6E1CA2EA4E0DA2E0E94D10F80911204CB
:1021600060911104409110040E94550A0E94C0120F
:1021700060930C0470930D0480930E0490930F04ED
:1021800009C082E097E00E94E216BC0187E194E07A
:102190000E94840882E097E00E94CE16882389F787
:1021A0008FEE96E00E94CE16882309F48BC064E679
:1021B00070E080E090E00E94CE1219828FEE96E0EF
:1021C0000E94E2168983823009F040C080E194E0E9
:1021D00061E174E042E154E023E134E004E114E021
:1021E000F5E1EF2EF4E0FF2EE6E1CE2EE4E0DE2E68
:1021F0000E94D10F2DB73EB72A5030400FB6F89449
:102200003EBF0FBE2DBFEDB7FEB731968E010E5FFC
:102210001F4FADB7BEB712961C930E93119786ED64
:1022200092E0938382838091140484831582809149
:1022300015048683178280911604808711860E9478
:10224000CE022DB73EB7265F3F4F27C08330B1F592
:102250000E94A00D7C010E943C0DADB7BEB718973F
:102260000FB6F894BEBF0FBEADBFEDB7FEB7319647
:102270008E010E5F1F4F12961C930E9311972DE146
:1022800033E033832283F582E482978386830E943E
:10229000CE022DB73EB7285F3F4F0FB6F8943EBF32
:1022A0000FBE2DBF8FEE96E0B8010E9430188FEE62
:1022B00096E060E072E00E94301804C0CE01019602
:1022C0000E945909A89561960FB6F894DEBF0FBE1B
:1022D000CDBFCF91DF911F910F91FF90EF90DF90D5
:1022E000CF900895AF92BF92CF92DF92EF92FF927C
:1022F0000F931F93DF93CF93CDB7DEB7C456D04073
:102300000FB6F894DEBF0FBECDBF88E10FB6F894CC
:1023100080936000109260000FBE82E060E00E9437
:1023200059138FE261E00E94591381E361E00E943A
:10233000591383E361E00E94591385E361E00E9431
:10234000591381E00E94BE09A9ECAA2EA6E0BA2E7C
:10235000C50140E855E260E070E00E94D51582E0DA
:1023600097E040E855E260E070E00E94D5158FEEFE
:1023700096E040E855E260E070E00E94D515C501A6
:1023800069E273E00E944F18C50169E573E00E949D
:102390003018C50162EB72E00E943018C5016CE68E
:1023A00073E00E943018C5016FE773E00E944F1878
:1023B000C50169E873E00E944F1889EF93E00E941D
:1023C000F9050E94840B0E94E30B0E94EC090E9415
:1023D0002F0B0E94840B80E194E061E174E042E104
:1023E00054E023E134E004E114E0F5E1EF2EF4E001
:1023F000FF2EE6E1CE2EE4E0DE2E0E94D10F87E133
:1024000094E06EED7DE00E9480088E010F5F1F4F0B
:1024100084E6D8011D928A95E9F7EDB7FEB770976B
:102420000FB6F894FEBF0FBEEDBF3196ADB7BEB785
:1024300012961C930E9311978AE993E093838283FB
:1024400080911204848315828091110486831782FF
:1024500080911004808711868091140482871386EE
:1024600080911504848715868091160486871786C7
:102470000E94CE02EDB7FEB770960FB6F894FEBF7D
:102480000FBEEDBFC501B8010E944F180E94C012D7
:1024900068517C4F8F4F9F4F60930C0470930D04D5
:1024A00080930E0490930F0429E288E190E00FB628
:1024B000F894A895809360000FBE20936000CC59DB
:1024C000DF4F0FB6F894DEBF0FBECDBFCF91DF91C7
:1024D0001F910F91FF90EF90DF90CF90BF90AF9042
:1024E00008950E94F8120E9472110E947010FDCF90
:1024F0001F920F920FB60F9211242F933F938F9339
:102500009F93AF93BF938091B4049091B504A09131
:10251000B604B091B7043091B8040196A11DB11D65
:10252000232F2D5F2D3720F02D570196A11DB11DB2
:102530002093B8048093B4049093B504A093B60498
:10254000B093B7048091B0049091B104A091B2040B
:10255000B091B3040196A11DB11D8093B004909376
:10256000B104A093B204B093B304BF91AF919F9113
:102570008F913F912F910F900FBE0F901F90189544
:102580008FB7F8942091B4043091B5044091B6040B
:102590005091B7048FBFB901CA010895EF92FF921D
:1025A0000F931F937B018C018FB7F8944091B40473
:1025B0005091B5046091B6047091B7048FBF2FB7E6
:1025C000F8948091B4049091B504A091B604B091B0
:1025D000B7042FBF841B950BA60BB70BE816F906A3
:1025E0000A071B0760F71F910F91FF90EF90089566
:1025F000789484B5826084BD84B5816084BD85B5DE
:10260000826085BD85B5816085BDEEE6F0E08081A4
:1026100081608083E1E8F0E0808182608083808156
:1026200081608083E0E8F0E0808181608083E1EB7D
:10263000F0E0808184608083E0EBF0E08081816065
:102640008083E1E9F0E08081826080838081816025
:102650008083E1EAF0E08081826080838081816014
:102660008083E1E2F1E0808182608083808181600B
:102670008083E0E9F0E0808181608083E0EAF0E03F
:10268000808181608083E0E2F1E0808181608083ED
:10269000EAE7F0E0808184608083808182608083CB
:1026A0008081816080838081806880831092C100F6
:1026B0000895282F30E0C90188589E4FFC0194915D
:1026C0002E5C3E4FF9018491882391F0E82FF0E0D1
:1026D000EE0FFF1FEC51FF4FA591B491662329F433
:1026E0008C91909589238C9308958C91892B8C9350
:1026F0000895482F50E0CA0182549E4FFC01249156
:10270000CA0188589E4FFC0194914E5C5E4FFA01BD
:102710003491332309F477C0222309F462C02330B3
:1027200021F4809180008F7705C0243031F48091AE
:1027300080008F7D8093800054C0213019F484B5CF
:102740008F7704C0223021F484B58F7D84BD49C0C9
:10275000263021F48091B0008F7705C0273031F406
:102760008091B0008F7D8093B0003BC0283021F471
:10277000809190008F7705C0293031F480919000CE
:102780008F7D809390002DC02A3021F4809190009D
:10279000877FF7CF2B3021F48091A0008F770BC07B
:1027A0002C3021F48091A0008F7D05C02D3031F4B4
:1027B0008091A000877F8093A00013C02E3021F469
:1027C000809120018F770BC02F3021F48091200160
:1027D0008F7D05C0203129F480912001877F80936F
:1027E0002001E32FF0E0EE0FFF1FE250FF4FA59115
:1027F000B491662329F48C91909589238C93089544
:102800008C91892B8C930895682F70E0CB018254B2
:102810009E4FFC012491CB0188589E4FFC014491AE
:102820006E5C7E4FFB019491992319F420E030E017
:1028300075C0222309F462C0233021F48091800006
:102840008F7705C0243031F4809180008F7D809394
:10285000800054C0213019F484B58F7704C0223031
:1028600021F484B58F7D84BD49C0263021F4809148
:10287000B0008F7705C0273031F48091B0008F7D94
:102880008093B0003BC0283021F4809190008F7776
:1028900005C0293031F4809190008F7D80939000A5
:1028A0002DC02A3021F480919000877FF7CF2B3004
:1028B00021F48091A0008F770BC02C3021F48091FF
:1028C000A0008F7D05C02D3031F48091A000877F5E
:1028D0008093A00013C02E3021F4809120018F77C7
:1028E0000BC02F3021F4809120018F7D05C0203155
:1028F00029F480912001877F80932001892F90E027
:10290000880F991F885E9E4FFC01A591B4918C9110
:1029100020E030E0842311F021E030E0C901089587
:10292000BF92CF92DF92EF92FF920F931F93CF93BC
:10293000DF93E82EF62EB42EC0E0D0E0022F10E098
:1029400087E0C82ED12CBB2041F4B8010C2E02C068
:10295000759567950A94E2F70AC0B6016C1B7D0B6A
:10296000C80102C0959587956A95E2F7BC01617030
:102970008E2D0E9479138F2D61E00E9479138F2D87
:1029800060E00E9479132196C830D105E1F6DF910D
:10299000CF911F910F91FF90EF90DF90CF90BF905C
:1029A00008951F920F920FB60F920BB60F9211243B
:1029B0002F933F934F935F936F937F938F939F9347
:1029C000AF93BF93EF93FF934091C600E091390519
:1029D000F0913A05CF01019660E870E00E940C1A70
:1029E0009C0180913B0590913C052817390739F0EF
:1029F000E754FB4F408330933A0520933905FF910C
:102A0000EF91BF91AF919F918F917F916F915F9166
:102A10004F913F912F910F900BBE0F900FBE0F90D3
:102A20001F9018951F920F920FB60F920BB60F9230
:102A300011242F933F934F935F936F937F938F93C3
:102A40009F93AF93BF93EF93FF934091CE00E0919C
:102A5000BD05F091BE05CF01019660E870E00E94CF
:102A60000C1A9C018091BF059091C0052817390769
:102A700039F0E35CFA4F40833093BE052093BD05E7
:102A8000FF91EF91BF91AF919F918F917F916F9146
:102A90005F914F913F912F910F900BBE0F900FBE02
:102AA0000F901F9018951F920F920FB60F920BB6B2
:102AB0000F9211242F933F934F935F936F937F93C4
:102AC0008F939F93AF93BF93EF93FF934091D60063
:102AD000E0914106F0914206CF01019660E870E076
:102AE0000E940C1A9C01809143069091440628177D
:102AF000390739F0EF53FA4F408330934206209361
:102B00004106FF91EF91BF91AF919F918F917F917E
:102B10006F915F914F913F912F910F900BBE0F904E
:102B20000FBE0F901F9018951F920F920FB60F9225
:102B30000BB60F9211242F933F934F935F936F9394
:102B40007F938F939F93AF93BF93EF93FF934091A6
:102B50003601E091C506F091C606CF01019660E806
:102B600070E00E940C1A9C018091C7069091C806E3
:102B70002817390739F0EB5BF94F40833093C606CD
:102B80002093C506FF91EF91BF91AF919F918F91D7
:102B90007F916F915F914F913F912F910F900BBE5D
:102BA0000F900FBE0F901F9018955F926F927F92BB
:102BB0008F929F92AF92BF92CF92DF92EF92FF924D
:102BC0000F931F93CF93DF93EC013A014B014134F4
:102BD00082E458078FE0680780E078070CF07FC038
:102BE00060E874E88EE190E0A40193010E94411A2C
:102BF0002150304040405040CA01B90122E030E04D
:102C000040E050E00E94411A59016A01A601950175
:102C1000209530954095509594E0220F331F441F26
:102C2000551F9A95D1F760E074E284EF90E00E941E
:102C3000411ACA01B9012FEF30E040E050E00E9494
:102C4000E119A40193010E94411AC90181509F4FCB
:102C5000181619061CF4522E5A9403C05524539486
:102C6000521A60E079E08DE390E0A40193010E94A4
:102C7000411A2150304040405040CA01B90122E081
:102C800030E040E050E00E94411A20953095409598
:102C9000509583E0220F331F441F551F8A95D1F7AB
:102CA00060E074E284EF90E00E94411ACA01B90129
:102CB0002FEF30E040E050E00E94E119A4019301C1
:102CC0000E94411AC90181509F4F181619061CF421
:102CD000822F815002C081E0821B851500F5E885B6
:102CE000F98581E090E00A8802C0880F991F0A9454
:102CF000E2F7808360E079E08DE390E0A401930146
:102D00000E94411A2150304040405040CA01B90150
:102D100022E030E040E050E00E94411A04C0E88523
:102D2000F98510829501EC81FD813083EE81FF8170
:102D30002083EA85FB85208141E050E0CA010E84B2
:102D400002C0880F991F0A94E2F7282B2083EA8596
:102D5000FB852081CA010F8402C0880F991F0A9445
:102D6000E2F7282B2083EA85FB858081088802C052
:102D7000440F551F0A94E2F7842B8083DF91CF9193
:102D80001F910F91FF90EF90DF90CF90BF90AF9089
:102D90009F908F907F906F905F900895DC011296C6
:102DA000ED91FC911397E058FF4F819191918058DC
:102DB0009F4F20813181821B930B60E870E00E945D
:102DC0000C1A0895CF93DF93DC011296ED91FC91DC
:102DD0001397EF01CE57DF4F48815981E058FF4FDD
:102DE00080819181E058F0408417950719F42FEF06
:102DF0003FEF0CC0E40FF51F2081CA01019660E887
:102E000070E00E940C1A9983888330E0C901DF9139
:102E1000CF910895DC011296ED91FC911397EE5736
:102E2000FF4F80819181929382930895FC01A08548
:102E3000B18521898C9190E0022E02C095958795ED
:102E40000A94E2F780FFF6CF0484F585E02D6083D5
:102E5000089527EE33E03093CA062093C90689EB24
:102E600094E09093CC068093CB0685EC90E0909311
:102E7000CE068093CD0684EC90E09093D0068093AC
:102E8000CF0680EC90E09093D2068093D10681EC3F
:102E900090E09093D4068093D30686EC90E09093D4
:102EA000D6068093D506E4E0E093D70673E07093EE
:102EB000D80667E06093D90655E05093DA0641E002
:102EC0004093DB063093DD062093DC068DE395E02E
:102ED0009093DF068093DE068DEC90E09093E10600
:102EE0008093E0068CEC90E09093E3068093E206FA
:102EF00088EC90E09093E5068093E40689EC90E0FE
:102F00009093E7068093E6068EEC90E09093E906B6
:102F10008093E806E093EA067093EB066093EC0674
:102F20005093ED064093EE063093F0062093EF06A3
:102F300081EC95E09093F2068093F10685ED90E0A8
:102F40009093F4068093F30684ED90E09093F60658
:102F50008093F50680ED90E09093F8068093F70655
:102F600081ED90E09093FA068093F90686ED90E06B
:102F70009093FC068093FB06E093FD067093FE069B
:102F80006093FF06509300074093010730930307B7
:102F90002093020785E496E0909305078093040749
:102FA00085E391E0909307078093060784E391E01F
:102FB000909309078093080780E391E090930B07B3
:102FC00080930A0781E391E090930D0780930C07AB
:102FD00086E391E090930F0780930E07E09310072C
:102FE00070931107609312075093130740931407CF
:102FF00008950F931F93CF93DF938C01EB0109C0CA
:103000002196D801ED91FC910190F081E02DC8014D
:10301000099568816623A1F7DF91CF911F910F91E8
:103020000895EF92FF920F931F93CF93DF938C013C
:103030007B01EA010CC0D7016D917D01D801ED91B2
:10304000FC910190F081E02DC8010995219720970E
:1030500091F7DF91CF911F910F91FF90EF9008951D
:10306000DC01ED91FC910280F381E02D099508953A
:103070000F931F938C01DC01ED91FC910190F08185
:10308000E02D6DE00995D801ED91FC910190F08162
:10309000E02DC8016AE009951F910F9108950F93E3
:1030A0001F938C010E943018C8010E9438181F918C
:1030B0000F9108955058BB27AA270ED0E5C0D6D04F
:1030C00030F0DBD020F031F49F3F11F41EF4CBC080
:1030D0000EF4E095E7FBC1C0E92FE7D080F3BA1703
:1030E000620773078407950718F071F49EF5FFC017
:1030F0000EF4E0950B2EBA2FA02D0B01B901900113
:103100000C01CA01A0011124FF27591B99F0593F56
:1031100050F4503E68F11A16F040A22F232F342F9E
:103120004427585FF3CF469537952795A795F040EC
:103130005395C9F77EF41F16BA0B620B730B840B01
:10314000BAF09150A1F0FF0FBB1F661F771F881FB9
:10315000C2F70EC0BA0F621F731F841F48F4879511
:1031600077956795B795F7959E3F08F0B3CF939500
:10317000880F08F09927EE0F97958795089504D04A
:103180006894B111B5C0089598D088F09F5790F019
:10319000B92F9927B751A0F0D1F0660F771F881F7C
:1031A000991F1AF0BA95C9F712C0B13081F09FD0BB
:1031B000B1E008959CC0672F782F8827B85F39F059
:1031C000B93FCCF3869577956795B395D9F73EF4DB
:1031D00090958095709561957F4F8F4F9F4F089583
:1031E000E89409C097FB3EF49095809570956195A1
:1031F0007F4F8F4F9F4F9923A9F0F92F96E9BB2757
:103200009395F695879577956795B795F111F8CFD2
:10321000FAF4BB0F11F460FF1BC06F5F7F4F8F4F3D
:103220009F4F16C0882311F096E911C0772321F033
:103230009EE8872F762F05C0662371F096E8862FCB
:1032400070E060E02AF09A95660F771F881FDAF722
:10325000880F9695879597F9089597F99F6780E865
:1032600070E060E008959FEF80EC089500240A94D8
:103270001616170618060906089500240A94121651
:103280001306140605060895092E0394000C11F484
:10329000882352F0BB0F40F4BF2B11F460FF04C031
:1032A0006F5F7F4F8F4F9F4F089557FD9058440F8A
:1032B000551F59F05F3F71F04795880F97FB991F95
:1032C00061F09F3F79F08795089512161306140652
:1032D000551FF2CF4695F1DF08C0161617061806DF
:1032E000991FF1CF86957105610508940895E894BA
:1032F000BB2766277727CB0197F908950BD0C4CF5A
:10330000B5DF28F0BADF18F0952309F0A6CFABCFD0
:103310001124EECFCADFA0F3959FD1F3950F50E0B3
:10332000551F629FF001729FBB27F00DB11D639F77
:10333000AA27F00DB11DAA1F649F6627B00DA11D1D
:10334000661F829F2227B00DA11D621F739FB00DC3
:10335000A11D621F839FA00D611D221F749F332733
:10336000A00D611D231F849F600D211D822F762FCC
:103370006A2F11249F5750408AF0E1F088234AF0C9
:10338000EE0FFF1FBB1F661F771F881F9150504015
:10339000A9F79E3F510570F060CFAACF5F3FECF3D5
:1033A000983EDCF3869577956795B795F795E79501
:1033B0009F5FC1F7FE2B880F911D9695879597F912
:1033C0000895629FD001739FF001829FE00DF11D6F
:1033D000649FE00DF11D929FF00D839FF00D749F8F
:1033E000F00D659FF00D9927729FB00DE11DF91F3B
:1033F000639FB00DE11DF91FBD01CF011124089598
:10340000991B79E004C0991F961708F0961B881F36
:103410007A95C9F78095089597FB092E07260AD05B
:1034200077FD04D049D006D000201AF4709561953C
:103430007F4F0895F6F7909581959F4F0895A1E2EB
:103440001A2EAA1BBB1BFD010DC0AA1FBB1FEE1F1E
:10345000FF1FA217B307E407F50720F0A21BB30B69
:10346000E40BF50B661F771F881F991F1A9469F7E5
:1034700060957095809590959B01AC01BD01CF0141
:10348000089597FB092E05260ED057FD04D0D7DFEF
:103490000AD0001C38F450954095309521953F4F47
:1034A0004F4F5F4F0895F6F7909580957095619511
:1034B0007F4F8F4F9F4F0895AA1BBB1B51E107C041
:1034C000AA1FBB1FA617B70710F0A61BB70B881FB4
:1034D000991F5A95A9F780959095BC01CD01089543
:1034E000EE0FFF1F0590F491E02D09942F923F926B
:1034F0004F925F926F927F928F929F92AF92BF9204
:10350000CF92DF92EF92FF920F931F93CF93DF93AF
:10351000CDB7DEB7CA1BDB0B0FB6F894DEBF0FBE0C
:10352000CDBF09942A88398848885F846E847D8459
:103530008C849B84AA84B984C884DF80EE80FD805B
:103540000C811B81AA81B981CE0FD11D0FB6F894D1
:0E355000DEBF0FBECDBFED010895F894FFCF92
:10355E000A0057726974696E6720636F6E666967D9
:10356E0020746F20454550524F4D2E2E2E004F4B3E
:10357E00004B4F0052656164696E6720696E746519
:10358E00726E616C20636F6E6669672E2E2E00451B
:10359E004550524F4D20666F726D617420697320D5
:1035AE006F6B6579210A00556E6B6E6F776E2045D5
:1035BE004550524F4D20666F726D61742E20466FCE
:1035CE00726D6174696E6720344B622E2E2E00442C
:1035DE006973706C617920746573742E2E2E00528F
:1035EE0065616C74696D6520436C6F636B20696EE9
:1035FE0069742E2E2E004745540056455253494F9E
:10360E004E00312E30004441590025640054494D7E
:10361E004500253032643A253032643A2530326422
:10362E00004441544500253032642F253032642F3A
:10363E003230253032640054454D5000253032640E
:10364E000048554D4900534554005245424F4F5482
:10365E00005265626F6F74696E672E2E2E00534D89
:10366E0000454F46000D002573202573002B256461
:10367E0043202825642525290057616C6C436C6F07
:10368E00636B206279204F7363617220476F6E7A8D
:10369E00616C657A202D207777772E427269636F81
:1036AE004765656B2E636F6D004669726D7761724B
:1036BE00652076657273696F6E3A20002072656CB4
:1036CE00656173652064617465206F6E3A20004AEF
:1036DE00756E652032303039005374617274696EC4
:1036EE0067204932432042757300436C6F636B2031
:1036FE007374617274656420617420253032643A8B
:10370E00253032643A253032642028253032642F39
:10371E00253032642F3230253032642900200019D2
:10372E000700003F065B4F666D7D077F6F00000050
:0E373E00000000000000001617F91711180017
:00000001FF
